:100000000C94D3040C9458210C9483210C94AE21AD
:100010000C94D9210C9404220C942F220C945A2273
:100020000C9485220C9404050C9404050C9404058E
:100030000C9404050C940A330C9404050C940405E8
:100040000C9404050C9404050C9404050C9404050C
:100050000C9404050C9404050C9404050C94AA1E3D
:100060000C9404050C94CA240C9400250C940405EB
:100070000C9404050C9404050C9404050C940405DC
:100080000C9404050C9404050C9404050C940405CC
:100090000C94D4330C940A340C9404050C94C21CB4
:1000A0000C9404050C9404050C9404050C940405AC
:1000B0000C9404050C9404050C9404050C9404059C
:1000C0000C9404050C9404050C9404050C946A33F8
:1000D0000C94A0330C9404050C94EA2E0C94202F5D
:1000E0000C9404056306660669066C066F067206C4
:1000F000C006750678067B067E068106840687069E
:100100008A068D0690069306960699069C069F061B
:10011000A206A506A806AB06AE06B106B406B7064B
:10012000BA06B70BC30BCD0BC00BC80BCA0BBA0B6F
:10013000C80BC00BCD0BE219CF19D119D319D519A2
:10014000D719D919DB19E91FEC1FDB1FDF1FE51FCA
:100150002320F01FF41FFA1FFE1F022008200C208E
:100160001020232016201A201E200821D220DA2059
:10017000E620F3201421212148213E214021422163
:1001800044214A214C21002305230A2314231E2342
:10019000972328233023382342234C2356236523D7
:1001A0006F239723792383238D230C94E51F0C94CD
:1001B000DF1F0C9421210C943D180C9434340C94C2
:1001C00042210C94DB1F0C94CD0B0C94F41F0C9467
:1001D00066060C9423070C94F01F0C9463060C9491
:1001E00014230C9497230C943E210C94BA060C947F
:1001F00090060C94D5190C946C060C94B7060C94CC
:10020000F3200C9416200C946E3B0C94BA0B0C94B7
:10021000AE060C94CF190C94A2060C948D060C9487
:100220006F230C94593D0C9483230C944C230C9411
:100230009F060C9448210C94D7190C94E6200C943A
:100240007E060C94C0060C9405230C9479230C9420
:10025000D9190C94D63C0C9408200C94DC3B0C94DB
:100260000D180C9444210C94B1060C94AB060C941C
:100270009C060C941E200C94E83C0C94C80B0C9427
:10028000EF3C0C944A2F0C9405240C9400230C94FE
:10029000D2200C9410200C940C180C94FD170C9484
:1002A0000A230C94E91F0C9499060C9475060C947F
:1002B000DB190C9472060C944C3B0C94B9200C94F2
:1002C000C30B0C9496060C941E230C9465230C947B
:1002D00084060C94850E0C944A210C9469060C94A7
:1002E000D1190C9431180C942A250C9402200C94EA
:1002F0000C200C945A3B0C94EC1F0C94FE3B0C9479
:100300007B060C94FE1F0C94E93C0C94FE3C0C9470
:1003100028230C948A060C94D3340C94F33C0C944C
:1003200087060C9481060C9423200C94E2190C94FB
:10033000FA1F0C942C3D0C94E1170C9493060C942A
:10034000E73C0C9440210C94D3190C946F060C9448
:10035000B4060C941D3B0C94403B0C9478060C9412
:1003600014210C9408210C94EB3C0C94C00B0C94BD
:100370007D3B0C94A8060C9438230C94DA200C9442
:100380002B3D0C9442230C94E9170C9430230C94CD
:100390008D230C94EE3C0C946D180C94A5060C94D3
:1003A000B70B0C9456230C94863D0C94CA0B0C94FA
:1003B0004C210C94D73C0C941A200C94CA332D2D4C
:1003C0002D2D2D2D2D2D2D2D2D2D2D2D2D2D2D2D5D
:1003D0002D2D2D2D2D2D2D2D2D2D2D2D2D2D2D2D4D
:1003E0002D2D0A005265736F6C7574696F6E3A201B
:1003F0002020004D61782056616C75653A202020E0
:1004000020004D696E2056616C75653A20202020D1
:1004100000556E697175652049443A2020202000FE
:10042000447269766572205665723A202020004138
:100430006C74697475646520286D2900556E697443
:100440006C6573732050657263656E74202825296E
:100450000047617320526573697374616E63652030
:10046000286F686D732900456E7669726F6E6D65D1
:100470006E74616C20506172746963756C6174652F
:10048000204D61747465722031302E3020287070D8
:100490006D2900456E7669726F6E6D656E74616C64
:1004A00020506172746963756C617465204D61746C
:1004B00074657220322E35202870706D2900456ECB
:1004C0007669726F6E6D656E74616C2050617274C6
:1004D0006963756C617465204D6174746572203157
:1004E0002E30202870706D29005374616E64617223
:1004F0006420506172746963756C617465204D612C
:10050000747465722031302E30202870706D29008F
:100510005374616E646172642050617274696375B2
:100520006C617465204D617474657220322E3520C3
:100530002870706D29005374616E6461726420507C
:100540006172746963756C617465204D6174746562
:100550007220312E30202870706D29004571756928
:1005600076616C656E742F657374696D6174656412
:1005700020434F32202870706D2900436172626FF2
:100580006E2044696F78696465202870706D290059
:100590004E6974726F67656E204F78696465732069
:1005A00028496E6465782900566F6C6174696C65C2
:1005B000204F7267616E696320436F6D706F756E57
:1005C00064732028496E6465782900546F74616CE7
:1005D00020566F6C6174696C65204F7267616E693B
:1005E0006320436F6D706F756E6473202870706246
:1005F0002900436F6C6F7220285247424129004303
:10060000757272656E7420286D412900566F6C7486
:1006100061676520285629004F626A65637420541B
:10062000656D702028432900416D6269656E7420F4
:1006300054656D70202843290052656C6174697699
:10064000652048756D6964697479202825290052F0
:100650006F746174696F6E20766563746F72004C9D
:10066000696E65617220416363656C65726174696E
:100670006F6E20286D2F733229004772617669747E
:100680007920286D2F7332290044697374616E6379
:10069000652028636D29005072657373757265203B
:1006A0002868506129004C6967687420286C757847
:1006B00029004779726F73636F70696320287261D4
:1006C000642F7329004F7269656E746174696F6E6F
:1006D00020286465677265657329004D61676E65E2
:1006E000746963202875542900416363656C6572E1
:1006F0006174696F6E20286D2F73322900547970F0
:10070000653A2020202020202020200053656E7391
:100710006F723A20202020202020002D2D2D2D2DFD
:100720002D2D2D2D2D2D2D2D2D2D2D2D2D2D2D2DF9
:100730002D2D2D2D2D2D2D2D2D2D2D2D2D2D2D0016
:1007400000000A0B02090C0D0E080703040100004B
:100750000000000000000000000000000000000099
:100760000000000000000000000000001211100056
:100770000000000000000000000000000000000079
:100780000000000000000102102020080810204096
:100790001020408002010201080402010102040845
:1007A00010204080804020100804020180040201D3
:1007B000804020100804020108040201010204081C
:1007C0001020408001020408102040800505050526
:1007D000070508080808020202020A0A08080404B9
:1007E00004040101010101010101030303030303E7
:1007F0000303040707070C0C0C0C0C0C0C0C020276
:10080000020206060606060606060B0B0B0B0B0B72
:100810000B0B000020002300260029002C002F00D5
:10082000320000010000030106010901000022005E
:10083000250028002B002E003100340002010000AA
:10084000050108010B0100002100240027002A00F7
:100850002D003000330001010000040107010A01EE
:10086000024E414E494E495459494E46CDCCCC3D9D
:100870000AD7233C17B7D13877CC2B329595E6248D
:100880001FB14F0A000020410000C84200401C4632
:1008900020BCBE4CCA1B0E5AAEC59D7400407A10D7
:1008A000F35A00A0724E18090010A5D4E80000E821
:1008B0007648170000E40B54020000CA9A3B00007F
:1008C00000E1F505000080969800000040420F000E
:1008D0000000A08601000000102700000000E803CF
:1008E000000000006400000000000A00000000009A
:1008F0000100000000002C76D888DC674F0823DF59
:10090000C1DFAE59E1B1B796E5E3E453C63AE6512B
:10091000997696E8E6C28426EB898C9B62ED407C52
:100920006FFCEFBC9C9F40F2BAA56FA5F490055AEE
:100930002AF75C936B6CF9676DC11BFCE0E40D4713
:10094000FEF520E6B500D0ED902E03009435770536
:100950000080841E080000204E0A000000C80C33EE
:100960003333330F986E12831141EF8D2114893B7D
:10097000E65516CFFEE6DB18D1844B381BF77C1DFD
:10098000901DA4BBE424203284725E228100C9F150
:1009900024ECA1E53D27D73CEF3CF33CFE3C2C3D4D
:1009A000593D863DE73C11241FBECFEFD1E2DEBFAB
:1009B000CDBF00E00CBF13E0A0E0B2E0E8E5F1E954
:1009C00000E00BBF02C007900D92A830B107D9F725
:1009D00026E0A8E0B3E001C01D92A639B207E1F716
:1009E00014E0C2EDD4E000E006C021970109802F99
:1009F000FE010E94283ECB3CD10780E00807A9F702
:100A00000E94C83D0C949A480C94000026E040E0F7
:100A100052EC61E070E080EF93E00E944B3C6CE0B0
:100A200070E088E093E00E94460A811107C066E208
:100A300072E080EF93E00E943035FFCF68EE73E004
:100A400080E090E00C94251F4F925F926F927F920E
:100A50008F929F92AF92BF92CF92DF92EF92FF92CE
:100A6000CF93DF93EC0188859985AA85BB8581307A
:100A70009105A105B10519F463E672E02BC083303E
:100A80009105A105B10551F182309105A105B1058E
:100A900019F469E672E01EC084309105A105B10524
:100AA00019F46EE672E016C08B309105A105B10510
:100AB00019F464E772E00EC08A309105A105B10512
:100AC00019F469E772E006C00997A105B10599F428
:100AD00061E872E080EF93E00E943035CC88DD88D9
:100AE000EE88FF88888C998CAA8CBB8C4C8C5D8C92
:100AF0006E8C7F8C11C06AE872E080EF93E00E94F8
:100B00003035412C84E2582E84E7682E89EC782E0B
:100B100053014201730162016FE872E080EF93E0DC
:100B20000E94303522E030E0B301A20180EF93E073
:100B30000E949F3767E972E080EF93E00E943035B2
:100B400022E030E0B501A40180EF93E00E949F37DE
:100B500062EA72E080EF93E00E94303522E030E0FC
:100B6000B701A60180EF93E0DF91CF91FF90EF9066
:100B7000DF90CF90BF90AF909F908F907F906F90BD
:100B80005F904F900C94A137CF93DF93CDB7DEB732
:100B9000C45ED1090FB6F894DEBF0FBECDBF4AE1E7
:100BA00050E0BE016B547F4F88E093E00E94EA0E54
:100BB00044E150E0BE016F567F4F88E093E00E9411
:100BC000EA0E48E250E0BE0163597F4F88E093E0AF
:100BD0000E94EA0E4EE050E0BE01675B7F4F88E066
:100BE00093E00E94EA0E48E050E0BE016B5D7F4F4B
:100BF00088E093E00E94EA0E4EE250E0BE016F5F93
:100C00007F4F88E093E00E94EA0E4AE150E068E0FE
:100C100073E0CE0187529F4F0E94C10DCE018B54CD
:100C20009F4F0E94240588E093E00E94DC0B6091B6
:100C300000027091010280E090E00E94251FCC51DB
:100C4000DF4F0FB6F894DEBF0FBECDBFDF91CF915F
:100C50000895CF93DF93CDB7DEB7A8970FB6F8947A
:100C6000DEBF0FBECDBFDC01ED91FC910084F185AC
:100C7000E02DBE016F5F7F4F19956BE177E080EF4C
:100C800093E00E9447356CE077E080EF93E00E94AC
:100C9000FE34BE016F5F7F4F80EF93E00E946B35A3
:100CA0006DEF76E080EF93E00E94FE34ED89FE89DF
:100CB0003197EF31F10508F063C08827EE58FF4FF8
:100CC0008F4F0C94283E69EE76E056C06BED76E0CF
:100CD00053C065EC76E050C062EB76E04DC066EA4A
:100CE00076E04AC067E976E047C069E876E044C04C
:100CF0006AE776E041C06FE576E03EC06FE476E0FB
:100D00003BC069E376E038C068E276E035C068E170
:100D100076E032C06CE076E02FC06FEF75E02CC05B
:100D200062EF75E029C06BEC75E026C068EA75E0FB
:100D300023C060E975E020C06BE775E01DC06CE57D
:100D400075E01AC066E375E017C060E175E014C095
:100D500069EE74E011C06EEB74E00EC063E974E0FC
:100D60000BC067E674E008C061E574E005C06CE3A1
:100D700074E002C06FE274E080EF93E00E94FE3402
:100D800080EF93E00E94433560E274E080EF93E0EF
:100D90000E94FE344D855E856F8578892AE030E0BB
:100DA00080EF93E00E94523661E174E080EF93E0BF
:100DB0000E94FE3449895A896B897C892AE030E097
:100DC00080EF93E00E94523662E074E080EF93E09F
:100DD0000E94FE344D8D5E8D6F8D78A122E030E053
:100DE00080EF93E00E94A13763EF73E080EF93E020
:100DF0000E94FE34498D5A8D6B8D7C8D22E030E04F
:100E000080EF93E00E94A13764EE73E080EF93E0FF
:100E10000E94FE3449A15AA16BA17CA122E030E0DE
:100E200080EF93E00E94A1376EEB73E080EF93E0D8
:100E30000E944735A8960FB6F894DEBF0FBECDBF0F
:100E4000DF91CF9108950F931F93CF93DF938C0180
:100E5000EB0188E2FB0111928A95E9F74BE050E043
:100E60006BEA72E0CE010E94C7431B8681E090E0EE
:100E7000A0E0B0E08C879D87AE87BF87F8018481B2
:100E80009581A681B781888B998BAA8BBB8B83E0D8
:100E900090E0A0E0B0E08C8B9D8BAE8BBF8B1CA252
:100EA0001DA21EA21FA2188E198E1A8E1B8E1C8EBA
:100EB0001D8E1E8E1F8E8AE097EDA3E2BCE388A3F1
:100EC00099A3AAA3BBA3DF91CF911F910F9108957E
:100ED000CF92DF92EF92FF920F931F93CF93DF9306
:100EE0001F92CDB7DEB76C0186EB92E0F6019183DD
:100EF000808313821282448355836683778386E0DE
:100F000090E029830E94213B7C01A8012981622F66
:100F10000E94F50FF601F382E2820F90DF91CF91EC
:100F20001F910F91FF90EF90DF90CF900895EF9277
:100F3000FF920F931F93CF93DF931F921F92CDB712
:100F4000DEB769834A83E12CF12C00E010E021E058
:100F500042E050E0BE016F5F7F4FFC0182819381D0
:100F60000E944A100F900F90DF91CF911F910F9127
:100F7000FF90EF900895462FFC01608771876DE325
:100F800070E00E9497076EE170E080E090E00C94C2
:100F9000251FEF92FF920F931F93CF93DF931F9222
:100FA000CDB7DEB77C01462FFC010085118560E0DE
:100FB00070E049830E94BB0769E170E080E090E047
:100FC0000E94251F498161E470E0C7010E949707D4
:100FD0006AE070E080E090E00E94251FB801C70140
:100FE0000E94BB0764E170E080E090E00F90DF9129
:100FF000CF911F910F91FF90EF900C94251FEF92CE
:10100000FF920F931F93CF93DF931F92CDB7DEB75D
:101010007C01462FFC010085118560E070E049836A
:101020000E94BB0769E170E080E090E00E94251F0C
:10103000498162E470E0C7010E9497076AE070E0AE
:1010400080E090E00E94251FB801C7010E94BB0705
:1010500064E170E080E090E00F90DF91CF911F910C
:101060000F91FF90EF900C94251FFF920F931F9309
:10107000CF93DF93EC01F62E0885198560E070E0D0
:101080000E94BB0769E170E080E090E00E94251FAC
:1010900040E067E070E0CE010E949707FF2011F06A
:1010A00040E801C040E06FE370E0CE010E94970786
:1010B0006AE070E080E090E00E94251FB801CE0158
:1010C0000E94BB0764E170E080E090E0DF91CF9187
:1010D0001F910F91FF900C94251FEF92FF920F9399
:1010E0001F93CF93DF93EC018B01E884F98460E0D8
:1010F00070E00E94BB0769E170E080E090E00E9430
:10110000251FF801408165E570E0CE010E94970738
:10111000F801418166E570E0CE010E949707F80171
:10112000428167E570E0CE010E949707F801438194
:1011300068E570E0CE010E949707F801448169E5F7
:1011400070E0CE010E949707F80145816AE570E0E2
:10115000CE010E949707F80146816BE570E0CE0151
:101160000E949707F80147816CE570E0CE010E946C
:101170009707F80140856DE570E0CE010E94970762
:10118000F80141856EE570E0CE010E949707F801F5
:1011900042856FE570E0CE010E949707F801438514
:1011A00060E670E0CE010E949707F801448561E691
:1011B00070E0CE010E949707F801458562E670E075
:1011C000CE010E949707F801468563E670E0CE01E4
:1011D0000E949707F801478564E670E0CE010E94FF
:1011E0009707F801408965E670E0CE010E949707F5
:1011F000F801418966E670E0CE010E949707F80188
:10120000428967E670E0CE010E949707F8014389A2
:1012100068E670E0CE010E949707F801448969E60C
:1012200070E0CE010E949707F80145896AE670E0F8
:10123000CE010E949707B701CE01DF91CF911F9198
:101240000F91FF90EF900C94BB07EF92FF920F93DA
:101250001F93CF93DF93EC018B01E884F98460E066
:1012600070E00E94BB0769E170E080E090E00E94BE
:10127000251FF801408165E570E0CE010E949707C7
:10128000F801418166E570E0CE010E949707F80100
:10129000428167E570E0CE010E949707F801438123
:1012A00068E570E0CE010E949707F801448169E586
:1012B00070E0CE010E949707F80145816AE570E071
:1012C000CE010E949707F80146816BE570E0CE01E0
:1012D0000E949707F80147816CE570E0CE010E94FB
:1012E0009707F80140856DE570E0CE010E949707F1
:1012F000F80141856EE570E0CE010E949707F80184
:1013000042856FE570E0CE010E949707F8014385A2
:1013100060E670E0CE010E949707F801448561E61F
:1013200070E0CE010E949707F801458562E670E003
:10133000CE010E949707F801468563E670E0CE0172
:101340000E949707F801478564E670E0CE010E948D
:101350009707F801408965E670E0CE010E94970783
:10136000F801418966E670E0CE010E949707F80116
:10137000428967E670E0CE010E949707F801438931
:1013800068E670E0CE010E949707F801448969E69B
:1013900070E0CE010E949707F80145896AE670E087
:1013A000CE010E949707B701CE01DF91CF911F9127
:1013B0000F91FF90EF900C94BB070F931F93CF9367
:1013C000DF93EC010885198560E070E00E94BB079F
:1013D00069E170E080E090E00E94251F42E06EE34A
:1013E00070E0CE010E949707B801CE010E94BB07B2
:1013F00064E170E080E090E0DF91CF911F910F9168
:101400000C94251F0F931F93CF93DF93EC01088556
:10141000198560E070E00E94BB0769E170E080E040
:1014200090E00E94251F40E06EE370E0CE010E9434
:101430009707B801CE010E94BB0764E170E080E02D
:1014400090E0DF91CF911F910F910C94251FEF92A7
:101450000F931F93CF93DF931F92CDB7DEB76983AE
:10146000E12C01E010E09E012F5F3F4F41E050E092
:10147000B901FC01828193810E94191189810F9029
:10148000DF91CF911F910F91EF900895CF92DF924E
:10149000EF92FF921F93CF93DF93EC016B0160E01B
:1014A0008A819B810E94271085E5E82EF12C61E05E
:1014B0008A819B810E942710182F81110CC06AE03D
:1014C00070E080E090E00E94251F81E0E81AF108BA
:1014D00071F710E05FC060E070E0CE010E94270A63
:1014E000803A69F068EE73E080E090E00E94251F8A
:1014F00060E070E0CE010E94270A803A51F760E078
:1015000070E0CE010E94BB0740E26FE370E0CE01C5
:101510000E9497076EE170E080E090E00E94251F36
:1015200060E070E0CE010E94270A803A29F06AE06C
:1015300070E080E090E0F2CF62E370E080E090E065
:101540000E94251F40E06EE370E0CE010E949707E5
:101550006AE070E080E090E00E94251F40E067E0D4
:1015600070E0CE010E94970740E06FE370E0CE018B
:101570000E9497076AE070E080E090E00E94251FDB
:10158000B601CE010E94BB0764E170E080E090E00C
:101590000E94251F812FDF91CF911F91FF90EF9027
:1015A000DF90CF9008956DE370E00E94270A90E0ED
:1015B0000895CF92DF92EF92FF920F931F93CF93F4
:1015C000DF93EC016B017A01890140E067E070E094
:1015D0000E949707C114D10439F069E370E0CE018D
:1015E0000E94270AF6018083E114F10439F066E3D2
:1015F00070E0CE010E94270AF701808301151105D2
:1016000039F06AE370E0CE010E94270AF801808376
:1016100068EC70E080E090E0DF91CF911F910F9136
:10162000FF90EF90DF90CF900C94251FFF920F93C7
:101630001F93CF93DF938C01EB0186E0FB011192A6
:101640008A95E9F761E070E0C8010E94270A888363
:1016500062E070E0C8010E94270A898363E070E0BD
:10166000C8010E94270A8A8366E070E0C8010E94D0
:10167000270A8D8364E070E0C8010E94270AF82ED3
:1016800065E070E0C8010E94270A2F2D30E0382B5A
:101690003C832B83DF91CF911F910F91FF90089591
:1016A000CF92DF92EF92FF920F931F93CF93DF932E
:1016B0006B017A01E90165E370E00E94270AC11419
:1016C000D10439F0982F9295969596959370F601DE
:1016D0009083E114F10451F0682F70E024E07595D7
:1016E00067952A95E1F76370F7016083209741F0D1
:1016F000482F50E055954795559547954370488339
:101700000115110519F08370F8018083DF91CF91E5
:101710001F910F91FF90EF90DF90CF900895EF927F
:10172000FF920F931F93CF93DF9300D01F92CDB7FB
:10173000DEB77C018E010F5F1F4F9E012E5F3F4F72
:10174000AE014D5F5F4FBE016C5F7F4F0E94500B3B
:10175000D7011896ED91FC9119973197EA30F10570
:1017600048F48827EF56FF4F8F4F0C94283E81E0B6
:101770009A810BC08C81833099F48B81833081F402
:101780008A81833069F481E09981933049F409C0FA
:101790008A8101C08981833019F481E09B81F5CF72
:1017A00080E00F900F900F900F90DF91CF911F91DD
:1017B0000F91FF90EF90089564E370E00C94270A76
:1017C000CF92DF92EF92FF920F931F93CF93DF930D
:1017D000EC018B010E948F0BE82E882309F4E2C0F4
:1017E000C884D98460E070E0CE010E94BB0769E143
:1017F00070E080E090E00E94251F66E570E0CE0179
:101800000E94270AF82E65E570E0CE010E94270AA3
:101810002F2D30E0322F2227282BF801318320830F
:1018200068E570E0CE010E94270AF82E67E570E0B7
:10183000CE010E94270A2F2D30E0322F2227282B9D
:10184000F801338322836AE570E0CE010E94270A03
:10185000F82E69E570E0CE010E94270A2F2D30E0B6
:10186000322F2227282BF801358324836CE570E082
:10187000CE010E94270AF82E6BE570E0CE010E948F
:10188000270A2F2D30E0322F2227282BF80137830B
:1018900026836EE570E0CE010E94270AF82E6DE5E2
:1018A00070E0CE010E94270A2F2D30E0322F222730
:1018B000282BF8013187208760E670E0CE010E9476
:1018C000270AF82E6FE570E0CE010E94270A2F2D1F
:1018D00030E0322F2227282BF8013387228762E657
:1018E00070E0CE010E94270AF82E61E670E0CE017A
:1018F0000E94270A2F2D30E0322F2227282BF801B3
:101900003587248764E670E0CE010E94270AF82E0E
:1019100063E670E0CE010E94270A2F2D30E0322FBF
:101920002227282BF8013787268766E670E0CE014C
:101930000E94270AF82E65E670E0CE010E94270A71
:101940002F2D30E0322F2227282BF801318B208BCE
:1019500068E670E0CE010E94270AF82E67E670E084
:10196000CE010E94270A2F2D30E0322F2227282B6C
:10197000F801338B228B6AE670E0CE010E94270AC1
:10198000F82E69E670E0CE010E94270A2F2D30E084
:10199000322F2227282BF801358B248BB601CE015C
:1019A0000E94BB078E2DDF91CF911F910F91FF9069
:1019B000EF90DF90CF900895EF920F931F93CF9306
:1019C000DF931F92CDB7DEB76983022F10E0E12CC1
:1019D0009A0141E050E0BE016F5F7F4FFC018281C0
:1019E00093810E9419110F90DF91CF911F910F9158
:1019F000EF9008954F925F926F927F928F929F9295
:101A0000AF92BF92CF92DF92EF92FF920F931F930C
:101A1000CF93DF93CDB7DEB728970FB6F894DEBF2C
:101A20000FBECDBF8C01CB01AE014F5F5F4F28E0F1
:101A3000FA0111922A95E9F728E060E270E00E942D
:101A4000DC0C688570E0762F66278F81682B072E67
:101A5000000C880B990B0E945F3F20E030E040E8CB
:101A600058E30E9414406B017C016E8170E0762F78
:101A700066278D81682B072E000C880B990B0E941E
:101A80005F3F20E030E040E858E30E9414404B0103
:101A90005C016C8170E0762F66278B81682B072EA6
:101AA000000C880B990B0E945F3F20E030E040E87B
:101AB00058E30E9414402B013C016A8170E0762FAC
:101AC00066278981682B072E000C880B990B0E94D2
:101AD0005F3F20E030E040E858E30E941440F80106
:101AE0006083718382839383448255826682778286
:101AF00080869186A286B386C486D586E686F786DA
:101B0000C80128960FB6F894DEBF0FBECDBFDF9197
:101B1000CF911F910F91FF90EF90DF90CF90BF90EA
:101B2000AF909F908F907F906F905F904F900895AF
:101B3000CF92DF92EF92FF921F93CF93DF93EC014E
:101B40006B010E948F0B182F882391F0E884F98491
:101B500060E070E0CE010E94BB0726E1A60165E5CA
:101B600070E0CE010E94DC0CB701CE010E94BB07E1
:101B7000812FDF91CF911F91FF90EF90DF90CF9059
:101B80000895AF92BF92CF92DF92EF92FF920F93A0
:101B90001F93CF93DF9300D000D0CDB7DEB77C0189
:101BA000CB015A012CE0F70111922A95E9F7AE0119
:101BB0004F5F5F4F26E0FA0111922A95E9F726E080
:101BC000B5010E94DC0C6A8170E0762F662789815E
:101BD000682BCC80D12CDC2CCC248B81C82A0E81A4
:101BE00010E0102F00278D81082BF4E1AF16B1040F
:101BF000C1F054F4E8E0AE16B10409F441C0FEE0CF
:101C0000AF16B10471F06FC088E2A816B104C1F13B
:101C1000EEE2AE16B104A1F1FAE1AF16B10409F09B
:101C200062C0072E000C880B990B0E945F3F20E0DA
:101C300030E040E85DE30E941440F7016083718367
:101C400082839383B601DD0C880B990B0E945F3F62
:101C500020E030E040E85DE30E941440F701648337
:101C6000758386839783B801110F880B990B0E94A7
:101C70005F3F20E030E040E85DE30E9414402EC06A
:101C8000072E000C880B990B0E945F3F20E030E08C
:101C900048EC52E40E94BC3EF7016083718382836A
:101CA0009383B601DD0C880B990B0E945F3F20E007
:101CB00030E048EC52E40E94BC3EF7016483758337
:101CC00086839783B801110F880B990B0E945F3FA1
:101CD00020E030E048EC52E40E94BC3EF70160870F
:101CE000718782879387C70126960FB6F894DEBF67
:101CF0000FBECDBFDF91CF911F910F91FF90EF905D
:101D0000DF90CF90BF90AF900895EF92FF920F9326
:101D10001F93CF93DF93CDB7DEB72C970FB6F89410
:101D2000DEBF0FBECDBF7C018B0184E2FB011192AF
:101D30008A95E9F784E290E0A0E0B0E0FB018083BF
:101D40009183A283B383F70184819581A681B781B2
:101D5000FB0184839583A683B78383E090E0A0E0B2
:101D6000B0E080879187A287B3870E94F41EF801B4
:101D7000608B718B828B938B4AE150E0B701CE016F
:101D800001960E94C10D89819A81AB81BC81F801C5
:101D9000848B958BA68BB78B8D819E81AF81B88507
:101DA000808F918FA28FB38F89859A85AB85BC85F3
:101DB000848F958FA68FB78F81E02C960FB6F894FD
:101DC000DEBF0FBECDBFDF91CF911F910F91FF906E
:101DD000EF9008958F929F92AF92BF92CF92DF9231
:101DE000EF92FF920F931F93CF93DF93CDB7DEB7A0
:101DF00068970FB6F894DEBF0FBECDBF7C018B0194
:101E00006A0184E2DB011D928A95E9F784E290E0A1
:101E1000A0E0B0E0FB0180839183A283B383F7014C
:101E200084819581A681B781FB0184839583A683F4
:101E3000B7830E94F41ED80150966D937D938D93C5
:101E40009C935397FE013D968CE0DF011D928A958D
:101E5000E9F7B8E2CB16D10461F48AE090E0A0E0A3
:101E6000B0E0F80180879187A287B38748E250E00D
:101E70008AC0F8E0CF16D10461F481E090E0A0E0E0
:101E8000B0E0F80180879187A287B38748E050E0EF
:101E90007AC0FEE2CF16D10461F489E090E0A0E0C0
:101EA000B0E0F80180879187A287B3874EE250E0C7
:101EB0006AC0FAE1CF16D10461F483E090E0A0E0BB
:101EC000B0E0F80180879187A287B3874AE150E0AC
:101ED0005AC0F4E1CF16D10409F046C084E090E086
:101EE000A0E0B0E0F80180879187A287B38744E142
:101EF00050E0B701CE0101960E94C10D69817A813F
:101F00008B819C818D809E80AF80B884C984DA8467
:101F1000EB84FC8425E33AEF4EE85CE30E94144036
:101F2000D80154966D937D938D939C93579725E399
:101F30003AEF4EE85CE3C501B4010E941440F80199
:101F4000608F718F828F938F25E33AEF4EE85CE3C9
:101F5000C701B6010E941440D8015C966D937D9331
:101F60008D939C935F972DC0BEE0CB16D10449F5AD
:101F700082E090E0A0E0B0E0F80180879187A2873E
:101F8000B3874EE050E0B701CE0101960E94C10D2B
:101F9000C980DA80EB80FC804D815E816F8178851D
:101FA00089859A85AB85BC85F801C48AD58AE68A7D
:101FB000F78A408F518F628F738F848F958FA68F92
:101FC000B78F81E068960FB6F894DEBF0FBECDBF25
:101FD000DF91CF911F910F91FF90EF90DF90CF9005
:101FE000BF90AF909F908F900895FC0160835283C3
:101FF0004183138280E290E0958384830895CF9398
:10200000DF93EC0189819A810E94CF181B82DF91B6
:10201000CF910895CF93DF93EC018B81811107C09D
:1020200061E0CE010E942710982F882361F068811B
:1020300089819A810E94E01889819A810E946B1996
:1020400091E0811190E0892FDF91CF9108950F9356
:102050001F93CF93DF931F92CDB7DEB78C01FC01A6
:102060008181928169830E94AC1881E0F8018383A9
:102070006981662341F0C8010F90DF91CF911F91D4
:102080000F910C940A1081E00F90DF91CF911F9176
:102090000F9108958F929F92BF92CF92DF92EF920D
:1020A000FF920F931F93CF93DF93DA01AE0DBF1D05
:1020B000EC01EC81FD81EA17FB07A0F1B22E6A0169
:1020C0004B01EC01688189819A810E94E018E1143A
:1020D000F10479F489819A81DC01ED91FC9102800F
:1020E000F381E02DA601B40119958C159D05D1F45D
:1020F00012C00115110571F389819A81DC01ED91FE
:10210000FC910280F381E02DA701B80119958E158D
:102110009F0541F4DFCF6B2D89819A810E94EC18D5
:1021200091E0811190E0892FDF91CF911F910F9164
:10213000FF90EF90DF90CF90BF909F908F90089589
:10214000CF92DF92EF92FF920F931F93CF93DF9383
:102150007C016B018A01DC016C9111968D919C913F
:1021600012970E945319C82FD0E0C017D107B9F4B5
:102170008601C8018C199D098C179D0770F4F70121
:1021800081819281DC01ED91FC910284F385E02D47
:102190001995F80181938F01ECCF81E001C080E0B7
:1021A000DF91CF911F910F91FF90EF90DF90CF9033
:1021B00008959F92AF92BF92CF92DF92EF92FF92DB
:1021C0000F931F93CF93DF935C016B017A01922EE3
:1021D000C0E0D0E0CE15DF05F8F4F50184819581EB
:1021E00087010C1B1D0B8017910708F48C01C70198
:1021F000801B910BC817D90710F0292D01C020E0D2
:10220000A801B6016C0F7D1FC5010E94A010882394
:1022100021F0C00FD11FDECF81E0DF91CF911F9160
:102220000F91FF90EF90DF90CF90BF90AF909F9075
:102230000895AF92BF92CF92DF92EF92FF920F93E9
:102240001F93CF93DF93EC01690158012E2DE12CF0
:10225000F12C00E010E00E944A10882381F021E078
:10226000A501B601CE01DF91CF911F910F91FF9093
:10227000EF90DF90CF90BF90AF900C94D91080E09A
:10228000DF91CF911F910F91FF90EF90DF90CF9052
:10229000BF90AF900895FC018081089580E008957B
:1022A000AF92BF92CF92DF92EF920F931F93CF9393
:1022B000DF9300D01F92CDB7DEB75C01DC0113962F
:1022C0001C921E9212971B966C931B978FEF1E9673
:1022D0008C931E971D968C931D971C968C931C9720
:1022E0001196DC92CE925B961C9282E090E029835C
:1022F0003A834B835C830E94213BFC0160E080E0D9
:1023000092E1AAE7B0E029813A814B815C812817EC
:1023100039074A075B0740F4B695A79597958795C7
:102320006F5F6630A1F767E091E09627002311F018
:1023300060E501C060E7792F76958E2D8C70872B34
:10234000862B808391709183D5011396FC93EE9335
:102350001297F501248335834683578300871187BD
:10236000E2860F900F900F900F90DF91CF911F9109
:102370000F91EF90DF90CF90BF90AF9008958F9224
:10238000AF92BF92CF92DF92EF92FF920F931F9383
:10239000CF93DF93CDB7DEB7DC0111961C921E926E
:1023A00013961C921E9212971B966C931B971C9669
:1023B0004C931C971E962C931E971D960C931D975D
:1023C000062E000C770BFB01E453F84FE491F0E08C
:1023D000EE0FFF1FE45DF74F8591949156969C9305
:1023E0008E935597FB01EA57F84F64915A966C9378
:1023F0005A970F3FC9F0002E000C110BF801E4535F
:10240000F84FE491F0E0EE0FFF1FE45DF74F859188
:10241000949150969C938E931F97F801EA57F84F2A
:10242000049157960C9357972F3FC9F0022E000C3A
:10243000330BF901E453F84FE491F0E0EE0FFF1F86
:10244000EE5EF74F8591949154969C938E9353979B
:10245000F901EA57F84F249158962C935897042E77
:10246000000C550BFA01E453F84FE491F0E0EE0F45
:10247000FF1FE45DF74F8591949152969C938E9344
:102480005197FA01EA57F84F449159964C9359974E
:102490001496CD92DD92ED92FC9217971996BC920C
:1024A000AE9218971A968C921A975B961C92DF91AF
:1024B000CF911F910F91FF90EF90DF90CF90BF9041
:1024C000AF908F900895FC0182819381009711F065
:1024D0000C94313B0895CF93DF93EC018B858F3FB4
:1024E00039F061E00E94242061E08B850E94602029
:1024F00088819981892B19F00E9478191DC061E0AB
:102500008C850E9424208A858B7F11F460E001C0B5
:1025100061E08C850E9460208D858F3F39F061E0FD
:102520000E94242061E08D850E9460208E858F3F6F
:1025300019F060E00E94242081E08B8FDF91CF9121
:1025400008955F926F927F928F929F92AF92BF9207
:10255000CF92DF92EF92FF920F931F93CF93DF936F
:10256000EC01FB0188819981892B09F14115510505
:1025700009F4C0C080818EBDEB01DB011196CB0157
:10258000840F951FA817B90741F03D910DB407FEC0
:10259000FDCF2EB53EBD2993F5CF41505109E40F33
:1025A000F51F0DB407FEFDCF8EB58083A3C08885CF
:1025B0009985892B19F080E8882E02C0882483949D
:1025C00080818821992493948111912C7A018F0123
:1025D0002C813D814E815F8160E271EA87E090E06D
:1025E0000E94E73DC22EE00EF11EA22EB12C0E1568
:1025F0001F0509F47FC0F8017080D82C612CCC2015
:1026000019F0C5010E94611F8A85877FB1F58D850C
:102610008F3FA1F0552453948D2D872109F4512C1F
:10262000951469F0EF85F8898F899081552011F014
:10263000892B02C080958923808301C0592CE989A8
:10264000FA899081898D892B8083CC2019F0C5016E
:102650000E94611F8E858F3F39F0EB89FC89908144
:10266000888D892309F06D28E989FA899081898DFF
:10267000809589238083952C2CC0E989FA899081E3
:10268000898D892B8083CC2019F0C5010E94611FA0
:102690008D858F3F69F0EF85F8899F898D2D872182
:1026A00019F08081982B03C08081909598239083A6
:1026B000E989FA899081898D8095892380838E8527
:1026C0008F3F39F0EB89FC899081888D892309F04F
:1026D0006D288E858F3F11F0F8016082888599857D
:1026E000892B11F4DD0C01C0D694D11088CF0F5F77
:1026F0001F4F7DCFDF91CF911F910F91FF90EF90F2
:10270000DF90CF90BF90AF909F908F907F906F9011
:102710005F900895CF93DF931F92CDB7DEB76983A3
:1027200041E050E0BE016F5F7F4F0E94A11289819E
:102730000F90DF91CF910895DC012D913C9111977D
:10274000232BF9F01296ED91FC9113974081318182
:1027500080916A03882399F02FB7F89480916A03D7
:10276000813059F48DB3809368039DB380916903E0
:10277000809589238DBB2FBF02C0209368034CBD79
:102780003DBD0895FC0180819181892B81F080916C
:102790006A03882361F09FB7F89420916A038091BF
:1027A0006803213019F48DBB9FBF08958FBF089532
:1027B000FC0183858F3F11F00C9460200895CF9326
:1027C000DF93EC010E949C1360E070E0CE01DF918A
:1027D000CF910C94D813CF93DF93EC0161E070E0BC
:1027E0000E94D813CE01DF91CF910C94C2138F9227
:1027F0009F92AF92BF92CF92DF92EF92FF920F9390
:102800001F93CF93DF931F921F92CDB7DEB77C014A
:102810005B016A0129833A830E94DF132981822E9A
:102820003A81932E080D191D8016910639F0F40196
:1028300061914F01C7010E948A13F6CF8501CA0C2E
:10284000DB1C0C151D0539F0F80161918F01C701E2
:102850000E948A13F6CFC7010E94EB1381E00F900C
:102860000F90DF91CF911F910F91FF90EF90DF902C
:10287000CF90BF90AF909F908F900895EF92FF926E
:102880000F931F93CF93DF93EC018B017A01622F9B
:1028900070E0C8010E949743CE010E94DF13A70198
:1028A000B801CE010E94A112CE010E94EB1381E07B
:1028B000DF91CF911F910F91FF90EF9008956F924C
:1028C0007F929F92AF92BF92CF92DF92EF92FF9250
:1028D0000F931F93CF93DF931F921F92CDB7DEB755
:1028E0006C015A01922EF32E69837A830E94DF13C2
:1028F0006981662E7A81772EA60CB71C6A147B0438
:1029000039F0F30161913F01C6010E948A13F6CFAD
:10291000A92CBF2C0A0D1B1DA016B10641F06E2D6F
:10292000C6010E948A13F50181935F01F5CFC601AC
:102930000E94EB1381E00F900F90DF91CF911F91D8
:102940000F91FF90EF90DF90CF90BF90AF909F904E
:102950007F906F9008950F931F93CF93DF9300D0D4
:102960001F92CDB7DEB78C014B835C8369837A837A
:102970000E94DF134B815C8169817A81C8010E94CA
:10298000A112C8010E94EB1381E00F900F900F90ED
:102990000F90DF91CF911F910F910895EF920F93B8
:1029A000FC01118A128A138A148A7183608313824C
:1029B0001282E38651874087048722870F91EF9028
:1029C0000895CF92EF920F93FC01118A128A138A15
:1029D000148A738362833783268311821082C386AD
:1029E00051874087E48602870F91EF90CF9008953A
:1029F000AF92CF92EF920F931F93FC01118A128A2C
:102A0000138A148A538342837183608337832683B6
:102A1000A38611870087C486E2861F910F91EF90ED
:102A2000CF90AF900895EF920F93FC01118A128A14
:102A3000138A148A1182108213821282758364832E
:102A4000E38651874087048722870F91EF9008958E
:102A5000EF92FF920F931F93CF93DF931F921F92DA
:102A6000CDB7DEB7DC0118969C91189719961C918A
:102A7000199799831A83ED91FC911197309761F022
:102A80001B96EC90F12C50E08E010F5F1F4F21E060
:102A9000CF010E944A1041C01296ED91FC9113970C
:102AA000309749F116962D913C9117971B960C91F2
:102AB00050E02330310539F41E7F19839A8310E0EA
:102AC0000F5F1F4F11C02115310511F49F770AC008
:102AD0002230310511F4906805C02130310519F418
:102AE0009F779064998310E09E012F5F3F4FCF0145
:102AF0000E94F71312C014968D919C911597009720
:102B000059F0042F10E09B011B964C91BE016F5FA2
:102B10007F4F0E94C91701C080E00F900F90DF9196
:102B2000CF911F910F91FF90EF900895EF92FF9238
:102B3000211102C0FC012285253050F5FC01418B9A
:102B4000528B638B748BE12CF12CA22FB0E0EA1630
:102B5000FB06B4F4FC013485311104C0EE0DFF1DF9
:102B6000458706C0FD01EE19FF09E80FF91F4487EC
:102B7000452F562F672F7727FFEFEF1AFF0AE7CF72
:102B8000BC01635F7F4F422FFF90EF900C9428159C
:102B900080E0FF90EF900895FC016189728983893C
:102BA00094890895EF920F931F93CF93DF931F9211
:102BB0001F92CDB7DEB7DC019B0118969C91189748
:102BC00019965C91199799835A83ED91FC9111970D
:102BD000309769F0042F10E01B964C9150E0E12CE7
:102BE000BE016F5F7F4FCF010E94191142C0129644
:102BF000ED91FC911397309759F116966D917C9158
:102C00001797042F10E01B964C916330710539F42F
:102C1000516059839A8350E04F5F5F4F10C0611538
:102C2000710511F4906809C06230710511F49F7745
:102C300004C06130710511F4906C998350E0EE246A
:102C4000EA94BE016F5F7F4FCF010E945F1411C0F5
:102C500014968D919C911597009751F0042F10E0D8
:102C60001B964C91BE016F5F7F4F0E94B11701C050
:102C700080E00F900F90DF91CF911F910F91EF9017
:102C80000895CF93DF93EC01BC01635F7F4F4A85CA
:102C90000E94D215882319F12A8530E080E090E067
:102CA00040E050E0BA0182179307ACF4762F652F0D
:102CB000542F4427EC85E11107C0F901E81BF90BFB
:102CC000EC0FFD1FE48504C0FE01E80FF91FE58548
:102CD0004E2B0196E8CF342F252FCB0104C03FEFB8
:102CE0002FEF8FEF9FEF632F722FDF91CF9108951A
:102CF0000F931F93CF93DF938C01EB01BC01635FB4
:102D00007F4F42E00E94D2158823B9F0F8019485E4
:102D1000911108C0268530E0322F2227398328837D
:102D2000958508C0F801258530E0322F22273983A8
:102D300028839685292B39832883DF91CF911F9192
:102D40000F9108950F931F93CF93DF93EC018B01A5
:102D5000BC01635F7F4F41E00E94D215882319F0C8
:102D60009D85F8019083DF91CF911F910F91089578
:102D7000CF92DF92EF92FF92CF93DF93EB010E940D
:102D800041166B017C0160EC72E0CE010E9430358F
:102D900020E130E0B701A601CE01DF91CF91FF9095
:102DA000EF90DF90CF900C946436CF93DF93EB01DC
:102DB0000E94B816CE01DF91CF910C944335FC01EF
:102DC000718360834283238308950F931F93CF936E
:102DD000DF93EC01888199810E944116AB01BC010F
:102DE0000B8004C076956795579547950A94D2F75E
:102DF00081E090E00A8002C0880F991F0A94E2F7F0
:102E00000197092E000CAA0BBB0B8A019B0108231A
:102E100019232A233B23C901B801DF91CF911F91C8
:102E20000F9108958F929F92AF92BF92CF92DF92AF
:102E3000EF92FF920F931F93CF93DF93EC016A0100
:102E40007B01888199810E94411601E010E00A808F
:102E500002C0000F111F0A94E2F701501109012E60
:102E6000000C220B330BEB81480159010E2E04C0DC
:102E7000880C991CAA1CBB1C0A94D2F780949094CD
:102E8000A094B094AB01BC01482159216A217B2157
:102E9000888199810C211D212E213F2104C0000F22
:102EA000111F221F331FEA95D2F7402B512B622BA3
:102EB000732BFC012285DF91CF911F910F91FF9021
:102EC000EF90DF90CF90BF90AF909F908F900C9439
:102ED0009615FC0182850895FC0162870895FC0126
:102EE000718760870895FC0163870895EF92FF92D0
:102EF0000F931F93FC017287618751834083338353
:102F0000228315830483F782E68210861F910F9136
:102F1000FF90EF90089521E0FC01208781E0089563
:102F2000DC0118968C911897882349F01296ED9140
:102F3000FC91139719968D919C911A97199480E0A2
:102F40000895DC0118968C911897882341F0ED9133
:102F5000FC91119719968D919C911A97199480E084
:102F600008950F931F93DC0118968C91189788236E
:102F700069F01496ED91FC911597309731F0199600
:102F80008D919C911A97199501C080E01F910F9126
:102F900008950F931F93DC0118968C91189788233E
:102FA00069F01696ED91FC911797309731F01996CC
:102FB0008D919C911A97199501C080E01F910F91F6
:102FC00008958091460390E020914703821B910968
:102FD00008959091470380914603981750F4E92F84
:102FE000F0E0E85BFC4F208130E09F5F9093470367
:102FF00002C02FEF3FEFC9010895E0914703809190
:103000004603E81730F4F0E0E85BFC4F808190E085
:1030100008958FEF9FEF08950895AC01E0911E038E
:10302000F0911F033097E1F09091470380914603A0
:103030009817B0F090E0292F30E02617370754F4A6
:10304000DA01A20FB31F8C91D901A85BBC4F8C93FE
:103050009F5FF1CF1092470360934603CB01199411
:103060000895E0912003F0912103309729F0109208
:1030700024031092230319940895CF92DF92EF92C4
:10308000FF920F931F93CF93DF937C01262F972FEF
:103090008A0180912203882391F0C62FD72F6E01D9
:1030A000C40ED51ECC15DD0571F06991D701ED91E7
:1030B000FC910190F081E02DC7011995F3CF642FA9
:1030C000822F0E944F1AC801DF91CF911F910F915B
:1030D000FF90EF90DF90CF900895CF93DF931F92F2
:1030E000CDB7DEB76983209122032223D1F020914E
:1030F0002303203240F021E030E0FC0133832283BF
:1031000080E090E015C080912403E82FF0E0EB5DB3
:10311000FC4F998190838F5F8093240380932303D6
:1031200005C061E0CE0101960E944F1A81E090E057
:103130000F90DF91CF910895FC011382128288EEE7
:1031400093E0A0E0B0E084839583A683B78387EC07
:1031500092E0918380830895109247031092460372
:1031600010922403109223030E940C1A81E398E129
:103170000E947C1A8DE098E10C94771ACF93DF932C
:103180001F92CDB7DEB769830E94AC186981862F84
:103190000F90DF91CF910C94371A0C94BE180C94B9
:1031A0002A1ACB01BA010C943B1ACB01BA01422F67
:1031B0000C948F1A80E00C94BB1C81E00C94BB1C17
:1031C00081E08093220360934503109224031092C0
:1031D000230308950C94E0180F93062F21E04091EB
:1031E000230365E273E0809145030E94951B1092D2
:1031F000240310922303109222030F9108954F92FB
:103200005F926F927F92AF92BF92CF92EF92FF92B6
:103210000F931F93CF93DF935C01F62ED42F2801D9
:103220003901EE2021F10E94E018CE2DC43008F0C3
:10323000C3E0C150C0F0D501ED91FC91B8E0CB9F47
:10324000C0011124A301920104C0569547953795FA
:1032500027958A95D2F7CA01B9010190F081E02D36
:10326000C5011995E6CF60E0C5010E94EC184D2F0D
:10327000D13208F040E22C2D68E473E08F2D0E94DB
:10328000B21A1092470380934603DF91CF911F91AA
:103290000F91FF90EF90CF90BF90AF907F906F9085
:1032A0005F904F900895CF92EF920F931F93C22E8D
:1032B000E12C00E010E098010E94FF181F910F918F
:1032C000EF90CF90089521E00C94531921E00C94D5
:1032D00053190C94531961E00C94EC1870931F036C
:1032E00060931E0308957093210360932003089553
:1032F000CF93CFB7F89480916B03811127C0E1E0A1
:10330000F8E08491EBEBF7E09491E82FF0E0EE0F1A
:10331000FF1FEA5BF74FA591B491EC91E92321F4EB
:1033200061E085E30E94602061E085E30E94242043
:103330008CB580618CBD8CB580648CBD61E084E30C
:103340000E94242061E083E30E94242080916B038B
:103350008F5F80936B03CFBFCF9108959FB7F89491
:1033600080916B03882319F0815080936B038091C7
:103370006B03811105C08CB58F7B8CBD10926A03E5
:103380009FBF08952FB7F89490E088309105A8F476
:10339000FC018827E556FF4F8F4F0C94283E80E2B2
:1033A00012C081E010C082E00EC084E00CC088E052
:1033B0000AC080E408C080E806C082E080936A0307
:1033C00080E001C080E190916903892B80936903BB
:1033D00080916A03811103C081E080936A032FBF4B
:1033E000089590916A039230B1F02FB7F894883025
:1033F00030F4E82FF0E0E25EFD4F808101C080E014
:10340000809590916903892380936903811102C09B
:1034100010926A032FBF08951092E00381E0809319
:10342000DE031092DD0361E084E10E94602061E030
:1034300085E10E946020E9EBF0E080818E7F80834F
:1034400080818D7F808388E48093B80085E48093B9
:10345000BC000895ECEBF0E080818A7B808360E023
:1034600084E10E94602060E085E10C946020880F78
:103470008093BA0008959B01AC0160E074E284EF90
:1034800090E00E94E73DDA01C9014097A109B10926
:10349000B695A795979587958093B8000895409124
:1034A0008F03262F30E0240F311D21323105DCF44B
:1034B0002091E0032430C9F4FC0180E090E08617FD
:1034C00058F430918F032191DC01AF56BC4FA30F0C
:1034D000B11D2C930196F3CF80918F03680F6093F9
:1034E0008F0380E0089581E0089582E0089590932D
:1034F000D4038093D30308959093D6038093D50388
:103500000895882311F085EC01C085E88093BC0004
:10351000089585EC8093BC001092E003089510920A
:10352000D8036093D9037093DA038093DB039093FD
:10353000DC034093D7030895CF93DF9391E09093FA
:10354000D803882361F0C091B800D091BA000E94DE
:103550002A1A0E940C1AD093BA00C093B800DF91C7
:10356000CF9108954F925F926F927F928F929F9228
:10357000AF92BF92EF92FF920F931F93CF93DF937F
:10358000F82E8B01C42FE22E413208F0BDC00E94FC
:10359000001F4B015C01D091E003DD2331F18091EC
:1035A000D9039091DA03A091DB03B091DC03892B5E
:1035B0008A2B8B2B81F30E94001F4090D9035090DF
:1035C000DA036090DB037090DC03DC01CB01881927
:1035D0009909AA09BB09481659066A067B06D8F656
:1035E0008091D7030E949C1A8FC081E08093E003F2
:1035F000E092DE039FEF90936D031092B2039C0F55
:103600009093B1038093DF039091DF038F2D880F98
:10361000892B8093DF038091DD03813089F510923F
:10362000DD030E94001F4B015C018091DF0380934A
:10363000BB008091D9039091DA03A091DB03B09194
:10364000DC03892B8A2B8B2BA9F00E94001F409052
:10365000D9035090DA036090DB037090DC03DC0147
:10366000CB0188199909AA09BB09481659066A06A7
:103670007B0690F18091BC0083FDD7CF85EC01C023
:1036800085EE8093BC000E94001F4B015C0180917D
:10369000E003813031F58091D9039091DA03A09154
:1036A000DB03B091DC03892B8A2B8B2B81F30E94E7
:1036B000001F4090D9035090DA036090DB037090B4
:1036C000DC03DC01CB0188199909AA09BB0948165A
:1036D00059066A067B06D8F68091D7030E949C1A89
:1036E00014C08091B2038C1710F4C091B20323EB85
:1036F00033E0F801D9018A2F821B8C1718F48D91C1
:103700008193F9CFDC2F01C0D0E08D2FDF91CF91D5
:103710001F910F91FF90EF90BF90AF909F908F906F
:103720007F906F905F904F9008954F925F926F924D
:103730007F928F929F92AF92BF92DF92EF92FF9211
:103740000F931F93CF93DF93413208F0C6C0122F1F
:10375000F42EE72ED62ED82F0E94001F4B015C01BD
:10376000C091E003CC2311F18091D9039091DA0349
:10377000A091DB03B091DC03892B8A2B8B2B81F387
:103780000E94001F4090D9035090DA036090DB0341
:103790007090DC03DC01CB0188199909AA09BB09E7
:1037A000481659066A067B06D8F683C082E08093E5
:1037B000E0030093DE038FEF80936D031092B2035A
:1037C000F092B103ED2DFE2D23EB33E0D9018A2FCA
:1037D000821B8F1518F481918D93F9CF1092DF031E
:1037E0009091DF03DD0FD92BD093DF038091DD03B0
:1037F000813089F51092DD030E94001F4B015C01AE
:103800008091DF038093BB008091D9039091DA030C
:10381000A091DB03B091DC03892B8A2B8B2BA9F0C1
:103820000E94001F4090D9035090DA036090DB03A0
:103830007090DC03DC01CB0188199909AA09BB0946
:10384000481659066A067B06A0F18091BC0083FDEC
:10385000D7CF85EC01C085EE8093BC000E94001F8D
:103860004B015C01112359F18091E003823039F55D
:103870008091D9039091DA03A091DB03B091DC032E
:10388000892B8A2B8B2B71F30E94001F4090D90348
:103890005090DA036090DB037090DC03DC01CB0115
:1038A00088199909AA09BB09481659066A067B06B0
:1038B000C8F68091D7030E949C1AC5E013C080917E
:1038C0006D038F3F79F080916D03803241F08091DC
:1038D0006D03803331F0C4E005C0C1E003C0C2E035
:1038E00001C0C3E08C2FDF91CF911F910F91FF900A
:1038F000EF90DF90BF90AF909F908F907F906F90F0
:103900005F904F90089585ED8093BC008091D9031E
:103910009091DA03A091DB03B091DC030796A11D1F
:10392000B11D23E0B695A795979587952A95D1F770
:103930002091BC0024FF1CC04091D9035091DA03B0
:103940006091DB037091DC03452B462B472B81F301
:103950000097A105B10541F02AE22A95F1F700C0D0
:103960000197A109B109E4CF8091D7030C949C1A67
:103970001092E00308959091D80381111092D8031A
:10398000892F08951F920F920FB60F9211240BB634
:103990000F922F933F934F935F936F937F938F93E8
:1039A0009F93AF93BF93EF93FF938091B900887F6C
:1039B000803609F49EC078F5883209F45DC090F431
:1039C000803109F456C038F4882309F4F5C08830F2
:1039D00009F44FC0F5C0883109F44EC0803209F4B3
:1039E0005FC0EEC0803409F46AC058F4803309F433
:1039F00057C0883309F0E4C080936D030E94891A90
:103A0000DFC0803509F44FC0883509F45DC08834C3
:103A100009F0D6C0D3C0883909F4C4C0A8F48837E7
:103A200009F467C038F4883609F463C0803709F4B4
:103A300060C0C6C0883809F4B5C0803909F45FC0D9
:103A4000803809F0BDC05BC0803B09F483C038F406
:103A5000803A09F466C0883A09F47CC0B1C0803C61
:103A600009F4A4C0883C09F4A1C0883B09F487C0CC
:103A7000A7C08091DF0310C09091B2038091B10381
:103A8000981770F5E091B20381E08E0F8093B20336
:103A9000F0E0ED54FC4F80818093BB0085EC83C047
:103AA00080936D038BC0E091B20381E08E0F809311
:103AB000B2038091BB00F0E0ED54FC4F8083909105
:103AC000B2038091B1036BC0E091B20381E08E0F2D
:103AD0008093B2038091BB00F0E0ED54FC4F8083F3
:103AE0008091DE0381116AC081E08093DD0384EA66
:103AF0005EC083E08093E00310926E03CFCF80918D
:103B00006E03803208F04EC0E0916E0381E08E0FAC
:103B100080936E038091BB00F0E0E159FC4F8083FD
:103B2000BDCF0E94891A80916E03803230F4E091FB
:103B30006E03F0E0E159FC4F108260916E0370E07B
:103B4000E091D303F091D4038FE693E0199510929E
:103B50006E0336C084E08093E003109290031092CD
:103B60008F03E091D503F091D603199580918F03CF
:103B7000811105C081E080938F0310929103E09141
:103B8000900381E08E0F80939003F0E0EF56FC4F9E
:103B900080818093BB009091900380918F03981750
:103BA00008F47CCF85E88093BC000AC085EC809344
:103BB000BC001092E00304C010926D030E94831CAD
:103BC000FF91EF91BF91AF919F918F917F916F91F5
:103BD0005F914F913F912F910F900BBE0F900FBEB1
:103BE0000F901F9018950F931F9390E0FC01EA57D8
:103BF000F84F7491FC01E453F84FE491662311F0FF
:103C0000672F01C060E0F0E0EE0FFF1FEE5EF74FA0
:103C10008591949189019A013F70462F672F0E94E8
:103C2000D23C611571058105910549F0DC01CB019C
:103C30000196A11DB11DBC01CD019F7003C060E0C4
:103C400070E0CB011F910F9108954F925F926F9298
:103C50007F928F929F92AF92BF92CF92DF92EF921C
:103C6000FF920F931F93CF93DF9369017A0190E046
:103C7000FC01EA57F84F1491FC01E453F84FC4914A
:103C8000662311F0012F01C000E00E94001F4B01CC
:103C90005C01D0E0CC0FDD1FCE5ED74FFE01A591B9
:103CA000B4918C91812380131EC00E94001FDC01FF
:103CB000CB0188199909AA09BB09C816D906EA06D1
:103CC000FB0660F760E070E0CB0133C00E94001F8C
:103CD000DC01CB0188199909AA09BB09C816D906C4
:103CE000EA06FB0678F3FE01A591B4918C9181233D
:103CF0008013ECCF0E94001F2B013C01FE01A59117
:103D0000B4918C91812380130EC00E94001FDC01AE
:103D1000CB0188199909AA09BB09C816D906EA0670
:103D2000FB0660F7CFCF0E94001F64197509860952
:103D30009709DF91CF911F910F91FF90EF90DF9046
:103D4000CF90BF90AF909F908F907F906F905F903B
:103D50004F9008951F920F920FB60F9211242F9338
:103D60003F938F939F93AF93BF938091E103909183
:103D7000E203A091E303B091E4033091E90323E06F
:103D8000230F2D3720F40196A11DB11D05C026E893
:103D9000230F0296A11DB11D2093E9038093E10337
:103DA0009093E203A093E303B093E4038091E503CF
:103DB0009091E603A091E703B091E8030196A11D5D
:103DC000B11D8093E5039093E603A093E703B093BE
:103DD000E803BF91AF919F918F913F912F910F90E9
:103DE0000FBE0F901F9018952FB7F8946091E103C4
:103DF0007091E2038091E3039091E4032FBF089553
:103E00003FB7F8948091E5039091E603A091E70312
:103E1000B091E80326B5A89B05C02F3F19F0019685
:103E2000A11DB11D3FBFBA2FA92F982F8827820F40
:103E3000911DA11DB11DBC01CD0142E0660F771F90
:103E4000881F991F4A95D1F708958F929F92AF923C
:103E5000BF92CF92DF92EF92FF926B017C010E94A2
:103E6000001F4B015C01C114D104E104F10401F114
:103E70000E94B0220E94001FDC01CB018819990921
:103E8000AA09BB09883E9340A105B10560F321E072
:103E9000C21AD108E108F10888EE880E83E0981E66
:103EA000A11CB11CC114D104E104F10419F7DBCF4A
:103EB000FF90EF90DF90CF90BF90AF909F908F904A
:103EC00008958230910538F0880F991F880F991F47
:103ED00005970197F1F70895789484B5826084BDC1
:103EE00084B5816084BD85B5826085BD85B58160FE
:103EF00085BDEEE6F0E0808181608083E1E8F0E05E
:103F00001082808182608083808181608083E0E88C
:103F1000F0E0808181608083E1EBF0E0808184606B
:103F20008083E0EBF0E0808181608083E1E9F0E074
:103F3000808182608083808181608083E0E9F0E01D
:103F4000808181608083E1EAF0E08081826080830B
:103F5000808181608083E0EAF0E0808181608083FD
:103F6000E1E2F1E0808182608083808181608083F2
:103F7000E0E2F1E0808181608083EAE7F0E0808127
:103F8000846080838081826080838081816080837F
:103F90008081806880831092C100089590E0FC01C8
:103FA0003197E231F10508F04EC08827ED55FF4FFB
:103FB0008F4F0C94283E809180008F7703C08091B2
:103FC00080008F7D80938000089580918000877F9E
:103FD000F9CF84B58F7702C084B58F7D84BD0895F5
:103FE0008091B0008F7703C08091B0008F7D809367
:103FF000B0000895809190008F7707C08091900065
:104000008F7D03C080919000877F809390000895FA
:104010008091A0008F7707C08091A0008F7D03C0A2
:104020008091A000877F8093A00008958091200157
:104030008F7707C0809120018F7D03C08091200180
:10404000877F809320010895CF93DF9390E0FC0158
:10405000EA57F84F2491FC01E453F84F84918823E8
:1040600061F190E0880F991FFC01EA5BF74FC59161
:10407000D491FC01E45DF74FA591B491611109C0A1
:104080009FB7F8948881209582238883EC912E2312
:104090000BC0623061F49FB7F8943881822F80950D
:1040A00083238883EC912E2B2C939FBF06C08FB760
:1040B000F894E8812E2B28838FBFDF91CF9108954C
:1040C0001F93CF93DF93282F30E0F901E05CF84F86
:1040D0008491F901EA57F84FD491F901E453F84F6C
:1040E000C491CC23C9F0162F81110E94CE1FEC2F52
:1040F000F0E0EE0FFF1FE45DF74FA591B4918FB78D
:10410000F894111105C09C91ED2FE095E92302C0B0
:10411000EC91ED2BEC938FBFDF91CF911F91089520
:10412000CF93DF93282F30E0F901E05CF84F8491C2
:10413000F901EA57F84FD491F901E453F84FC491CB
:10414000CC2391F081110E94CE1FEC2FF0E0EE0FF6
:10415000FF1FEE5EF74FA591B491EC91ED2381E046
:1041600090E021F480E002C080E090E0DF91CF9108
:1041700008950895883008F070C0A82FB0E0AA0F05
:10418000BB1FAE5FBD4F11967C936E9390E0FC0118
:104190003197E730F105A0F58827EB54FF4F8F4F9B
:1041A0000C94283E809169008C7F482B40936900D5
:1041B000E89A089580916900440F551F440F551FD8
:1041C000837F482B40936900E99A089580916900A4
:1041D00074E0440F551F7A95E1F78F7C482B40938C
:1041E0006900EA9A08958091690066E0440F551FBE
:1041F0006A95E1F78F73482B40936900EB9A089515
:1042000080916A008C7F482B40936A00EC9A089555
:1042100080916A00440F551F440F551F837F482B20
:1042200040936A00ED9A089580916A0024E0440F5B
:10423000551F2A95E1F78F7C482B40936A00EE9A30
:10424000089580916A0096E0440F551F9A95E1F712
:104250008F73482B40936A00EF9A0895982F883007
:1042600030F5482F50E0FA013197E730F10570F44E
:104270008827E454FF4F8F4F0C94283EE8980DC0D8
:10428000E9980BC0EA9809C0EB9807C0EC9805C004
:10429000ED9803C0EE9801C0EF98E92FF0E0EE0F23
:1042A000FF1FEE5FFD4F89EB90E2918380830895BD
:1042B0001F920F920FB60F9211240BB60F922F93ED
:1042C0003F934F935F936F937F938F939F93AF939E
:1042D000BF93EF93FF93E0910602F09107021995C7
:1042E000FF91EF91BF91AF919F918F917F916F91CE
:1042F0005F914F913F912F910F900BBE0F900FBE8A
:104300000F901F9018951F920F920FB60F921124C5
:104310000BB60F922F933F934F935F936F937F93BF
:104320008F939F93AF93BF93EF93FF93E091080216
:10433000F09109021995FF91EF91BF91AF919F9173
:104340008F917F916F915F914F913F912F910F903E
:104350000BBE0F900FBE0F901F9018951F920F92DB
:104360000FB60F9211240BB60F922F933F934F93DA
:104370005F936F937F938F939F93AF93BF93EF93CD
:10438000FF93E0910A02F0910B021995FF91EF91D2
:10439000BF91AF919F918F917F916F915F914F915D
:1043A0003F912F910F900BBE0F900FBE0F901F905B
:1043B00018951F920F920FB60F9211240BB60F9201
:1043C0002F933F934F935F936F937F938F939F931D
:1043D000AF93BF93EF93FF93E0910C02F0910D0226
:1043E0001995FF91EF91BF91AF919F918F917F911F
:1043F0006F915F914F913F912F910F900BBE0F9056
:104400000FBE0F901F9018951F920F920FB60F922C
:1044100011240BB60F922F933F934F935F936F939B
:104420007F938F939F93AF93BF93EF93FF93E0910D
:104430000202F09103021995FF91EF91BF91AF91A4
:104440009F918F917F916F915F914F913F912F91AC
:104450000F900BBE0F900FBE0F901F9018951F92DC
:104460000F920FB60F9211240BB60F922F933F931A
:104470004F935F936F937F938F939F93AF93BF936C
:10448000EF93FF93E0910402F09105021995FF91DB
:10449000EF91BF91AF919F918F917F916F915F91BC
:1044A0004F913F912F910F900BBE0F900FBE0F9029
:1044B0001F9018951F920F920FB60F9211240BB6F2
:1044C0000F922F933F934F935F936F937F938F93AD
:1044D0009F93AF93BF93EF93FF93E0910E02F09100
:1044E0000F021995FF91EF91BF91AF919F918F911D
:1044F0007F916F915F914F913F912F910F900BBEE4
:104500000F900FBE0F901F9018951F920F920FB62D
:104510000F9211240BB60F922F933F934F935F93FB
:104520006F937F938F939F93AF93BF93EF93FF937B
:10453000E0911002F09111021995FF91EF91BF9156
:10454000AF919F918F917F916F915F914F913F912B
:104550002F910F900BBE0F900FBE0F901F901895CC
:104560000895809312020895863308F0865390913F
:104570007B00282F2870977F922B90937B00877069
:104580002091120290E4299F90011124822B8093A4
:104590007C0080917A00806480937A0080917A0018
:1045A00086FDFCCF809178009091790008951F934B
:1045B000CF93DF93182FEB0161E00E942420209716
:1045C00011F460E004C0CF3FD10539F461E0812FE0
:1045D000DF91CF911F910C946020E12FF0E0E05C1F
:1045E000F84FE4914E2F50E0FA013197E231F10596
:1045F00008F09DC08827ED53FF4F8F4F0C94283E45
:1046000084B5806884BDC7BD97C084B5806284BD11
:10461000C8BD92C080918000806880938000D09354
:104620008900C093880088C0809180008062809358
:104630008000D0938B00C0938A007EC08091800060
:10464000886080938000D0938D00C0938C0074C0EC
:104650008091B00080688093B000C093B3006CC0BC
:104660008091B00080628093B000C093B40064C0B9
:1046700080919000806880939000D0939900C093BF
:1046800098005AC080919000806280939000D093EF
:104690009B00C0939A0050C08091900088608093E6
:1046A0009000D0939D00C0939C0046C08091A000D4
:1046B00080688093A0008091A0008F7B8093A000F1
:1046C000D093A900C093A80037C08091A000806259
:1046D0008093A000D093AB00C093AA002DC080911E
:1046E000A00088608093A000D093AD00C093AC0080
:1046F00023C080912001806880932001D0932901FC
:10470000C093280119C0809120018062809320010C
:10471000D0932B01C0932A010FC0809120018860A3
:1047200080932001D0932D01C0932C0105C0C03887
:10473000D1050CF04BCF45CFDF91CF911F9108955C
:10474000CF92DF92EF92FF920F931F93CF93DF935D
:10475000F82ED62FE42E07E010E0C0E087E0C82E48
:10476000D12C61E08D2F0E9460208F2DE1100AC0B6
:104770000E9490209601201B310B01C0880F2A95C2
:10478000EAF707C00E949020002E01C0880F0A940B
:10479000EAF7C82B60E08D2F0E94602001501109BC
:1047A00000F78C2FDF91CF911F910F91FF90EF9029
:1047B000DF90CF900895FF920F931F93CF93DF93D5
:1047C000082F162FF42EC22FD8E06C2FF11006C040
:1047D0006170802F0E946020C69507C0661F662703
:1047E000661F802F0E946020CC0F61E0812F0E9405
:1047F000602060E0812F0E946020D15031F7DF916E
:10480000CF911F910F91FF9008958F929F92AF9239
:10481000BF92CF92DF92EF92FF920F931F93CF93AD
:10482000DF937C018B016C0182E0C80ED11C470133
:10483000E5E08E0E911CC0E0D0E0F60161916F01C1
:104840004AE050E0C8010E9471365C016EE2C80186
:104850000E9432358A0D9B1DC80FD91FC814D90478
:1048600061F74AE050E0F7016581C8010E947136A6
:104870008C0F9D1FDF91CF911F910F91FF90EF90B3
:10488000DF90CF90BF90AF909F908F90089529EDCB
:1048900032E0FC013183208312821382148215825C
:1048A00008950F93FC0189ED92E0918380836283E8
:1048B0004383248305830F91089529ED32E0FC01A1
:1048C000318320834283538364837583089529ED64
:1048D00032E0FC0131832083FB0140815181628100
:1048E0007381FC0142835383648375830895DC01E3
:1048F00090E020E030E08AE0FB014191BF014423D9
:1049000009F150ED540F5A3088F4829FF001839FD3
:10491000F00D11249F0120533109240F311D47FD53
:104920003A952F3F310541F338F312C04E3281F4EE
:10493000933071F0FD01E90FF11D22839F5F20E0AC
:1049400030E0DACF933021F415962C9381E008956E
:1049500080E00895FB014081518162817381FC01F7
:1049600042835383648375830895FC014283538398
:104970006483758308959B01BC016E5F7F4F44E0A3
:1049800050E0C9010E946F4321E0892B09F020E02B
:10499000822F08951F920F920FB60F9211240BB61B
:1049A0000F922F938F939F93EF93FF93E0910004C7
:1049B000F09101048081E0910604F091070482FDEA
:1049C00012C09081809109048F5F8F7320910A0437
:1049D000821751F0E0910904F0E0E051FC4F958F0F
:1049E0008093090401C08081FF91EF919F918F9185
:1049F0002F910F900BBE0F900FBE0F901F90189528
:104A00001F920F920FB60F9211240BB60F922F9395
:104A10003F934F935F936F937F938F939F93AF9346
:104A2000BF93EF93FF9380EF93E00E94BA3BFF9117
:104A3000EF91BF91AF919F918F917F916F915F9116
:104A40004F913F912F910F900BBE0F900FBE0F9083
:104A50001F90189580EF93E00E94403B21E0892B46
:104A600009F420E0822F0895FC0180819181009754
:104A700011F00C943B410895CF93DF93EC018881B2
:104A80009981009711F00E943B41198218821D8282
:104A90001C821B821A82DF91CF9108950F931F937E
:104AA000CF93DF93EC018B016F5F7F4F88819981FA
:104AB0000E942D42009731F0998388831B830A83DB
:104AC00081E001C080E0DF91CF911F910F910895A7
:104AD000CF93DF93EC0188819981892B29F08A811A
:104AE0009B818617970760F4CE010E944E2588238C
:104AF00041F08C819D81892B19F4E881F981108224
:104B000081E0DF91CF910895EF92FF920F931F9371
:104B1000CF93DF93EC017B018A01BA010E946825E3
:104B2000811104C0CE010E943C2507C01D830C8367
:104B3000B701888199810E94B243CE01DF91CF9164
:104B40001F910F91FF90EF900895FC011182108248
:104B500013821282158214826115710551F0FB01D6
:104B600001900020E9F73197AF01461B570B0C94D9
:104B700084250895EF92FF920F931F93CF93DF93B5
:104B8000EC017B018A01BA010E946825811104C0F1
:104B9000CE010E943C2507C01D830C83B70188818C
:104BA00099810E945F43CE01DF91CF911F910F91B8
:104BB000FF90EF9008950F931F93CF93DF938C0195
:104BC000EB01FC01808191810097D1F068817981AE
:104BD0006115710599F02BE23DE3232B79F04281B9
:104BE00053812C813D814217530740F00E94B2430C
:104BF0008C819D81F8019583848313C00E943B4181
:104C000088819981F801918380838A819B81938334
:104C100082838C819D8195838483198218821B8273
:104C20001A821D821C82DF91CF911F910F910895EE
:104C3000FC011182108213821282158214820C945C
:104C4000DB25FC01118210821382128215821482EC
:104C50000C94DB25CF93DF93EC01FB0186179707BC
:104C600061F0608171816115710529F04481558180
:104C70000E94842502C00E943C25CE01DF91CF9185
:104C80000895FC011182108213821282158214820F
:104C90000C942A26CF93DF93EC018617970711F027
:104CA0000E94DB25CE01DF91CF910895CF93DF9352
:104CB000EC018617970711F00E94DB25CE01DF91EA
:104CC000CF910895CF93DF93EC016115710559F0F1
:104CD000FB0101900020E9F73197AF01461B570B0C
:104CE0000E94842502C00E943C25CE01DF91CF9115
:104CF0000895CF93DF931F921F92CDB7DEB7FC01CB
:104D000011821082138212821582148269831A82A0
:104D1000BE016F5F7F4F0E9462260F900F90DF9160
:104D2000CF9108950F931F93CF93DF93CDB7DEB745
:104D300029970FB6F894DEBF0FBECDBF8C01862F2A
:104D4000F80111821082138212821582148250E0BF
:104D5000BE016F5F7F4F90E00E946D44BE016F5FA8
:104D60007F4FC8010E94622629960FB6F894DEBFD5
:104D70000FBECDBFDF91CF911F910F9108950F937B
:104D80001F93CF93DF93CDB7DEB762970FB6F8943A
:104D9000DEBF0FBECDBF8C01CB01F80111821082A6
:104DA000138212821582148250E0BE016F5F7F4F22
:104DB0000E94FB43BE016F5F7F4FC8010E946226C5
:104DC00062960FB6F894DEBF0FBECDBFDF91CF91D4
:104DD0001F910F9108950F931F93CF93DF93CDB73A
:104DE000DEB761970FB6F894DEBF0FBECDBF8C0162
:104DF000CB01F80111821082138212821582148273
:104E000050E0BE016F5F7F4F0E946D44BE016F5F37
:104E10007F4FC8010E94622661960FB6F894DEBFEC
:104E20000FBECDBFDF91CF911F910F9108950F93CA
:104E30001F93CF93DF93CDB7DEB7A2970FB6F89449
:104E4000DEBF0FBECDBF8C01CB01BA01F8011182CC
:104E50001082138212821582148230E0AE014F5FFD
:104E60005F4F0E941144BE016F5F7F4FC8010E94D7
:104E70006226A2960FB6F894DEBF0FBECDBFDF91BB
:104E8000CF911F910F9108950F931F93CF93DF93AD
:104E9000CDB7DEB7A1970FB6F894DEBF0FBECDBF7A
:104EA0008C01CB01BA01F8011182108213821282A7
:104EB0001582148230E0AE014F5F5F4F0E94404484
:104EC000BE016F5F7F4FC8010E946226A1960FB698
:104ED000F894DEBF0FBECDBFDF91CF911F910F9130
:104EE0000895EF92FF920F931F93CF93DF93CDB767
:104EF000DEB7A1970FB6F894DEBF0FBECDBF7C0121
:104F0000CB01BA01F701118210821382128215823D
:104F1000148242E0420F8E010F5F1F4F0E948640B5
:104F2000BC01C7010E946226A1960FB6F894DEBFAD
:104F30000FBECDBFDF91CF911F910F91FF90EF90EA
:104F40000895EF92FF920F931F93CF93DF93CDB706
:104F5000DEB7A1970FB6F894DEBF0FBECDBF7C01C0
:104F6000CB01BA01F70111821082138212821582DD
:104F7000148242E0420F8E010F5F1F4F0E94864055
:104F8000BC01C7010E946226A1960FB6F894DEBF4D
:104F90000FBECDBFDF91CF911F910F91FF90EF908A
:104FA00008950F931F93CF93DF931F921F92CDB756
:104FB000DEB78C016115710561F0CB0169837A83DD
:104FC0000E946643AC0169817A81C8010E94BA25BA
:104FD00002C00E943C25C8010F900F90DF91CF9135
:104FE0001F910F910895FC01118210821382128289
:104FF000158214820C94D127EF92FF920F931F9386
:10500000CF93DF93FC01248135816115710511F483
:1050100080E019C041155105A9F07B01EC018A011E
:10502000020F131FB8010E946825882389F3288185
:1050300039818C819D81B701820F931F0E94B243F9
:105040001D830C8381E0DF91CF911F910F91FF9021
:10505000EF900895FB0144815581608171810C942A
:10506000FC276115710551F0FB0101900020E9F763
:105070003197AF01461B570B0C94FC2780E0089535
:10508000CF93DF931F921F92CDB7DEB769831A8249
:1050900041E050E0BE016F5F7F4F0E94FC270F9000
:1050A0000F90DF91CF910895EF92FF920F931F938E
:1050B000CF93DF9300D01F92CDB7DEB77C01862F50
:1050C0004AE08E010F5F1F4FB80190E00E94064436
:1050D000F80101900020E9F73197AF01401B510B17
:1050E000B801C7010E94FC270F900F900F900F90FE
:1050F000DF91CF911F910F91FF90EF900895EF9264
:10510000FF920F931F93CF93DF93CDB7DEB728970E
:105110000FB6F894DEBF0FBECDBF7C01CB014AE0D5
:105120008E010F5F1F4FB8010E940644F8010190E5
:105130000020E9F73197AF01401B510BB801C701BF
:105140000E94FC2728960FB6F894DEBF0FBECDBF95
:10515000DF91CF911F910F91FF90EF900895EF9203
:10516000FF920F931F93CF93DF93CDB7DEB72797AF
:105170000FB6F894DEBF0FBECDBF7C01CB014AE075
:105180008E010F5F1F4FB8010E947844F801019013
:105190000020E9F73197AF01401B510BB801C7015F
:1051A0000E94FC2727960FB6F894DEBF0FBECDBF36
:1051B000DF91CF911F910F91FF90EF900895EF92A3
:1051C000FF920F931F93CF93DF93CDB7DEB72E9748
:1051D0000FB6F894DEBF0FBECDBF7C01CB01BA0184
:1051E0002AE08E010F5F1F4FA8010E941C44F801A6
:1051F00001900020E9F73197AF01401B510BB80136
:10520000C7010E94FC272E960FB6F894DEBF0FBE92
:10521000CDBFDF91CF911F910F91FF90EF90089537
:10522000EF92FF920F931F93CF93DF93CDB7DEB72B
:105230002D970FB6F894DEBF0FBECDBF7C01CB011A
:10524000BA012AE08E010F5F1F4FA8010E944B4454
:10525000F80101900020E9F73197AF01401B510B95
:10526000B801C7010E94FC272D960FB6F894DEBF47
:105270000FBECDBFDF91CF911F910F91FF90EF90A7
:105280000895EF92FF920F931F93CF93DF93CDB7C3
:10529000DEB764970FB6F894DEBF0FBECDBF7C01BA
:1052A000CB01BA018E010F5F1F4F22E044E00E9444
:1052B0008640BC01FC0101900020E9F73197AF0165
:1052C000481B590BC7010E94FC2764960FB6F8943F
:1052D000DEBF0FBECDBFDF91CF911F910F91FF9029
:1052E000EF900895EF92FF920F931F93CF93DF9368
:1052F000CDB7DEB764970FB6F894DEBF0FBECDBF53
:105300007C01CB01BA018E010F5F1F4F22E044E008
:105310000E948640BC01FC0101900020E9F7319712
:10532000AF01481B590BC7010E94FC2764960FB6BA
:10533000F894DEBF0FBECDBFDF91CF911F910F91CB
:10534000FF90EF900895EF92FF920F931F93CF93EA
:10535000DF936115710511F480E01EC08B01EC0133
:10536000CB010E9466430097B1F02C813D817C0106
:10537000E20EF31EB701CE010E946825882361F377
:10538000288139818C819D81B801820F931F0E94F1
:105390005F43FD82EC8281E0DF91CF911F910F91FD
:1053A000FF90EF900895CF93DF93EC01FB014481D0
:1053B0005581608171810E94FC27811103C0CE015B
:1053C0000E943C25CE01DF91CF910895CF93DF93CA
:1053D000EC016115710561F0FB0101900020E9F716
:1053E0003197AF01461B570B0E94FC27811103C068
:1053F000CE010E943C25CE01DF91CF910895CF933D
:10540000DF93EC010E944028811103C0CE010E946D
:105410003C25CE01DF91CF910895CF93DF93EC012E
:105420000E945428811103C0CE010E943C25CE0168
:10543000DF91CF910895CF93DF93EC010E947F28F5
:10544000811103C0CE010E943C25CE01DF91CF9196
:105450000895CF93DF93EC010E94AF28811103C020
:10546000CE010E943C25CE01DF91CF910895CF93CC
:10547000DF93EC010E94DF28811103C0CE010E945E
:105480003C25CE01DF91CF910895CF93DF93EC01BE
:105490000E941029811103C0CE010E943C25CE013B
:1054A000DF91CF910895CF93DF93EC010E944129C2
:1054B000811103C0CE010E943C25CE01DF91CF9126
:1054C0000895CF93DF93EC010E947229811103C0EC
:1054D000CE010E943C25CE01DF91CF910895CF935C
:1054E000DF93EC010E94A329811103C0CE010E9429
:1054F0003C25CE01DF91CF910895CF93DF93DC015E
:10550000ED91FC91EB01A881B981309711F01097D2
:10551000C9F4109759F0EB012C813D81232B31F018
:105520008C9190E091958195910914C0309781F00C
:10553000DC0114968D919C911597892B49F08081FF
:1055400090E008C0BD01CF01DF91CF910C94A94339
:1055500080E090E0DF91CF910895FC014481558176
:10556000FB01248135814217530729F40E947D2ACB
:1055700021E0892B09F020E0822F0895FC0124818D
:105580003581232B31F421E061157105A1F0FB0178
:1055900008C0FC01808191816115710531F421E021
:1055A000FC018081882339F005C00E94A94321E0D5
:1055B000892B09F020E0822F08950E947D2A892FEF
:1055C000881F8827881F08950E947D2A21E01816C9
:1055D00019060CF020E0822F08950E947D2A21E018
:1055E000181619060CF420E0822F08950E947D2AD7
:1055F000892F8095881F8827881F0895EF92FF9232
:105600000F931F93CF93DF938617970729F1FC0120
:1056100024813581FB014481558124173507F1F43C
:10562000232BD1F0DC01CD91DC9100811181899196
:10563000882391F0082E000C990B0E944F437C01A7
:10564000F80181918F01082E000C990B0E944F43A5
:10565000E816F90661F302C081E001C080E0DF9145
:10566000CF911F910F91FF90EF900895DB01149659
:10567000ED91FC911597DC0114962D913C911597B5
:105680002E1B3F0B24173507A0F02D913C912115BF
:10569000310579F0DB016D917C916115710549F05F
:1056A000CA01AF01820F931F0E94B94321E0892BE9
:1056B00009F020E0822F0895FC0144815581FB010F
:1056C000248135814217530720F040E050E00C94CC
:1056D000362B80E00895FC0124813581FB01448153
:1056E000558124173507A0F0FC0180819181009736
:1056F00079F0FB01608171816115710549F0241B0E
:10570000350B820F931F0E94A94321E0892B09F0DA
:1057100020E0822F0895FC012481358162177307F0
:1057200030F480819181FC01E60FF71F40830895DA
:10573000FC01248135816217730720F480819181F7
:10574000009729F410928D048DE894E00895860F57
:10575000971F0895FC01248135816217730748F46F
:1057600080819181009729F0FC01E60FF71F80816D
:10577000089580E008950C94AA2B0F931F93CF9364
:10578000DF934115510519F16115710501F1DC0136
:105790001496ED91FC9115972E173F0718F0FB0119
:1057A000108215C0E21BF30BEA012197EC17FD07ED
:1057B00008F4EF018B01FC0160817181620F731F9E
:1057C000AE01C8010E94C743C00FD11F1882DF91EC
:1057D000CF911F910F910895CF93DF93FC01248106
:1057E00035814217530778F4C081D181062E000C11
:1057F000770BCE01840F951F0E949E43009719F0EE
:105800008C1B9D0B02C08FEF9FEFDF91CF9108950E
:1058100040E050E00C94EC2BCF93DF93FC0124810B
:1058200035814217530780F4FB01DC01CD91DC91F7
:1058300060817181CE01840F951F0E94E143009722
:1058400019F08C1B9D0B02C08FEF9FEFDF91CF9162
:10585000089540E050E00C940C2CDF92EF92FF9200
:105860000F931F93CF93DF93DC0114962D913C91FE
:1058700015974217530718F08FEF9FEF1DC08C014B
:10588000EA012196DC01ED91FC911197EC0FFD1FCF
:10589000D0801082ED90FC90062E000C770BC70193
:1058A0000E94D643CE0DDF1DD882009729F3F80160
:1058B00020813181821B930BDF91CF911F910F913A
:1058C000FF90EF90DF900895FC0144815581415095
:1058D00051090C942D2CAF92BF92CF92DF92EF9290
:1058E000FF920F931F93CF93DF937B018A01FB01FC
:1058F000448155814115510561F1FC0124813581B7
:105900002115310531F12417350718F10217130756
:1059100018F0890101501109FC01A080B180C50176
:10592000DFEFCFEF6501C00ED11EC816D906A0F07B
:10593000F701608171810E94E143009769F09C0149
:105940002A193B090217130710F0D22FC32F019613
:10595000ECCF8FEF9FEF02C08D2F9C2FDF91CF9167
:105960001F910F91FF90EF90DF90CF90BF90AF907D
:105970000895FC0144815581FB0124813581421B3E
:10598000530B0C946B2CBF92CF92DF92EF92FF924D
:105990000F931F93CF93DF937C016B018A01E90181
:1059A0002417350720F4812F8901C42FD82F6DEDDE
:1059B00072E0C7010E94A525D60114968D919C9195
:1059C000159708171907D0F48C179D0708F4EC01F8
:1059D000D601ED91FC911197EC0FFD1FB080108264
:1059E0004D915C91BA01600F711FC7010E94622640
:1059F000D601ED91FC91EC0FFD1FB082C701DF9144
:105A0000CF911F910F91FF90EF90DF90CF90BF90BB
:105A10000895DC01ED91FC91309729F408958613E7
:105A200001C04083319680818111F9CF08952F9272
:105A30003F924F925F926F927F928F929F92AF921E
:105A4000BF92CF92DF92EF92FF920F931F93CF936B
:105A5000DF93FC01448055804114510409F4D2C005
:105A6000FB01648075806114710409F4CBC07A0174
:105A70006B018C01FA01A480B580A618B708FC015F
:105A8000C081D181A114B104C1F4F601608171819A
:105A9000CE010E94E143EC01892B09F4B3C0F70168
:105AA0006081718144815581CE010E947C43F70160
:105AB00084819581C80FD91FE8CFB7FE02C04E017F
:105AC00005C0FB0120803180420143C0F6016081A6
:105AD0007181C4010E94E1432C01892B21F1320123
